:0300000002141DCA
:0C141D00787FE4F6D8FD7581D7021464D6
:0D176200C101C100017000016E00016F00A7
:10196F0075985075D78F75D6FD758E15D2ACD2AFD1
:01197F002245
:10189500EDD395704002AD70E4FFEFC39D50127417
:1018A500A62FF8E6120782740129F9E43AFA0F80A7
:0618B500E9E4F570AF0547
:0118BB00220A
:10000300AF051DEF6013C20112073CF59974012976
:0A001300F9E43AFA2001E980FB222B
:1017EB00E570D394004021E56E6570600785706EDF
:1017FB00E4F56F22E56FC394055010EF256FF56F7D
:0B180B00C394054006D20022E4F56EF5
:0118160022AF
:0300230002186C54
:10186C00C0E0C0D075D018309813C298E570C394FE
:10187C0032500AAF70057074A62FF8A699309904EF
:09188C00C299D201D0D0D0E032A3
:0819D20000000000000000000D
:061216008B288A29892AB9
:10121C00E4FFAB28AA29A92A8F82758300120755EF
:10122C0054F0FEEF25E0242BF8A6068F8275830080
:10123C00120755C454F0FEEF25E0242CF8A6060F37
:10124C00BF05CFE4FF742B2FF8E6FE131313541FC6
:10125C00FDEEC4540F6DFE742B2FF8E6FD131354E2
:10126C003F6EFEEDC3136EFE742B2FF8E6FD6E3051
:10127C00E304ED4408F60FBF0ACBE4FEFF742B2FFA
:10128C00F8E6548062060FBF0BF3EE600343358023
:10129C00E4FEFF742B2FF8E6544062060FBF0BF3ED
:1012AC00EE6003433540E4FEFF742B2FF8E6542028
:1012BC0062060FBF0BF3EE6003433520E4FEFF74B0
:1012CC002B2FF8E6541062060FBF0BF3EE600343AE
:1012DC003510E4FF742B2FF8E6FE74462FF8A606A3
:0412EC000FBF0BF035
:0112F00022DB
:100A7500E4F517F516F515F5147513FF751201F55F
:100A850011F510AF13AE12AD11AC10780512079425
:100A9500A804A905AA06AB07E546131313541FFFBF
:100AA500EB4FF513EAF512E9F511E8F510AF13AEC2
:100AB50012AD11FC7805120794A804A905AA06AB86
:100AC50007E547131313541FFFEB4FF513EAF51210
:100AD500E9F511E8F510AF13AE12AD11FC7805126A
:100AE5000794A804A905AA06AB07E54813131354F0
:100AF5001FFFEB4FF513EAF512E9F511E8F510AF15
:100B050013AE12AD11FC7805120794A804A905AA25
:100B150006AB07E549131313541FFFEB4FF513EA13
:100B2500F512E9F511E8F510AF13AE12AD11FC7829
:100B350003120794A804A905AA06AB07E54AC4133E
:100B45005407FFEB4FF513EAF512E9F511E8F51037
:100B5500E54A1313135403FFE48F17F516F515F53E
:100B650014AE16AD15AC147805120794A804A905A2
:100B7500AA06AB07E54B131313541FFFEB4FF517ED
:100B8500EAF516E9F515E8F514AF17AE16AD15FC3F
:100B95007805120794A804A905AA06AB07E54C1326
:100BA5001313541FFFEB4FF517EAF516E9F515E892
:100BB500F514AF17AE16AD15FC7805120794A80409
:100BC500A905AA06AB07E54D131313541FFFEB4FF9
:100BD500F517EAF516E9F515E8F514AF17AE16ADF4
:100BE50015FC7805120794A804A905AA06AB07E524
:100BF5004E131313541FFFEB4FF517EAF516E9F5DE
:100C050015E8F514AF17AE16AD15FC780512079467
:100C1500A804A905AA06AB07E54F131313541FFF34
:100C2500EB4FF517EAF516E9F515E8F514AF17AE2C
:100C350016AD15FC7805120794A804A905AA06ABFC
:100C450007E550131313541FFFEB4FF517EAF5167D
:070C5500E9F515E8F5142292
:060DB5008B248A2589262B
:100DBB0078377C007D017BFF7A1979D27E007F0822
:100DCB00120716AB24AA25A926121216120A75E4CD
:100DDB00FBE4F52774372BF582E43400F583E0C38D
:100DEB0013F0AF13AE12AD11AC1078011207948F44
:100DFB00138E128D118C1030D70E74372BF582E4B5
:100E0B003400F583E04480F00527E527B408C50BD3
:100E1B00BB04BE7B04E4F52774372BF582E4340066
:100E2B00F583E0C313F0AF17AE16AD15AC14780114
:100E3B001207948F178E168D158C1430D70E7437AE
:100E4B002BF582E43400F583E04480F00527E52799
:100E5B00B408C50BBB08BE752D00752C01752B8016
:100E6B00752A5F752E407D047F051211167F6A7EF1
:100E7B0018121990E4FB74372BF582E43400F583D8
:100E8B00E0FF743F2BF582E43400F583EFF00BBBEE
:100E9B0004E490003FE0FCA3E0FDA3E0FEA3E0F53B
:100EAB002D8E2C8D2B8C2A752E407D057F051211D6
:100EBB00167F6A7E18121990E4FB743B2BF582E4C3
:100ECB003400F583E0FF743F2BF582E43400F583A7
:100EDB00EFF00BBB04E490003FE0FCA3E0FDA3E0CC
:100EEB00FEA3E0F52D8E2C8D2B8C2A752E407D06C6
:0C0EFB007F051211167F6A7E1802199004
:1015BE00121216120A757528407527807526147535
:1015CE002500E4FF1213897FE27E04121990851321
:1015DE00288512278511268510257F011213897FF4
:1015EE00E27E041219908517288516278515268503
:0E15FE0014257F021213897FE27E04021990E9
:0E176F00C1020256012C025A02BC025804B0FC
:04001D007F4EDFFE35
:0100210022BC
:1018BC00AB07E4FAF9F87FE87E03FDFC12169EC331
:1018CC00E49FFFE49E538EBF53890F8F8BF58DD20F
:0418DC008E758F0274
:0118E00022E5
:0E199F00538E7F5389F0438901D28CD2B2223D
:1014A900AD59AC58E4F58AF58CD28CED1D70011C50
:1014B900144C6013A20230B201B350EF12001DA206
:1014C9000230B201B350E4C28CED4C7002FF22A28B
:1014D900B29202AF8CEFFEAD8A7C00E42DFDEC3EAA
:1014E900FCD3ED955BEC955A400CD3ED9559EC95F1
:1014F9005850037F0122C3ED9557EC9556400CD304
:0D150900ED955BEC955A50037F02227F00A8
:0115160022B2
:101817001214A9EF24FE600C04701D2002037F013F
:10182700227F00221214A9EF640260037F022220A4
:0B18370002037F01227F00227F0222BB
:100F0700A2B29202E4F524121817EF64016002C33B
:100F1700220524E524C3940940EDE4F5247446250D
:100F270024F8E4F6F52574462524F8C000E6FF25E5
:100F3700E0D000F6121817EF24FE600E04700D744F
:100F4700462524F8E64408F68002C3220525E52550
:100F5700C3940540D10524E524C3940B40BFE55055
:100F670030E002C322E4F52474462524F8E6FF1393
:100F77001313541FFEEFC4540F6EFF74462524F855
:100F8700E6FE1313543F6FFFEEC3136FFF7446253E
:100F970024F8E66F30E302C3220524E524B40AC827
:100FA700E4F525F52474462524F8E65480622505E2
:100FB70024E524B40BEFE5256002C322E4F524748D
:100FC700462524F8E6544062250524E524B40BEFB2
:100FD700E5256002C322E4F52474462524F8E65487
:100FE7002062250524E524B40BEFE5256002C32222
:100FF700E4F52474462524F8E6541062250524E513
:0B10070024B40BEFE5256002C322D3E8
:0110120022BB
:10160C00120F075042E547C4540FFFE54654F04F04
:10161C00F551E549C4540FFFE54854F04FF552E538
:10162C004BC4540FFFE54A54F04FF553E54DC454E9
:10163C000FFFE54C54F04FF554E54FC4540FFFE544
:09164C004E54F04FF55522C32263
:1017230000000000000000000000000000000000B6
:1017330000000000000000000000000000000000A6
:101743000000000000000000000000000000000096
:0F17530000000000000000000000000000000087
:08177D00025E0000025C0000A6
:0E1990007D3ADDFEEF1FAC0670011E4C70F2BA
:01199E002226
:1018E100AD07AC06E4F58AF58CD28CAF8CEFFEAB7C
:1018F1008A7A00E42BFFEA3EFEC3EF9DEE9C40EBAB
:03190100C28C2273
:10002600E4F9FAEFFBE4FEEEC39D500CEF30E0017D
:1000360009EFC313FF0E80EFE930E053ED14B40867
:1000460000504C90005775F003A4C58325F0C58376
:100056007302006F02007402007902007E020083C0
:1000660002008802008D02009243030280214303AE
:1000760004801C43030880174303108012430320A7
:10008600800D43034080084303808003430201AE92
:0300960002AF03B3
:010099002244
:081013008B3F8A4089418D42A8
:10101B00E4F544F545F543E54425E0F544E4F545B1
:10102B00FFEFC395424003021101E543B4080040B2
:10103B00030210FD901046F828287302105E021070
:10104B007302108702109B0210AF0210C30210D75D
:10105B000210EBAB3FAA40A9418F827583001207A8
:10106B0055548062450210FDAB3FAA40A9418F82C7
:10107B00758300120755544062458076AB3FAA40FA
:10108B00A9418F82758300120755542062458062F7
:10109B00AB3FAA40A9418F827583001207555410AC
:1010AB006245804EAB3FAA40A9418F8275830012E7
:1010BB00075554086245803AAB3FAA40A9418F823D
:1010CB00758300120755540462458026AB3FAA4036
:1010DB00A9418F8275830012075554026245801215
:1010EB00AB3FAA40A9418F8275830012075554016B
:1010FB0062450F02102CE54560034344010543E5AF
:0A110B004364086003021022AF44A1
:0111150022B7
:10190400EF6009D28E7F207E00021990D28E7F1163
:101914007E00121990C28EC2B47F177E00121990F5
:03192400D28E223E
:10198000C28EC2B47F377E00121990E4FF021904A0
:02195A00A907DB
:10195C007B08E4FAEB59FF121904EBC313FB0ABA28
:02196C0004F283
:01196E002256
:0917900012195AAF297E007D07F1
:061799008F828E83AA0579
:10179F00E4FBEBC39A5017AF82EF5401FF12190409
:0E17AF00E583C313F583E58213F5820B80E416
:0117BD002209
:1012F100E4FB79FAF582F583F53FF540E55EC3132A
:10130100FEE55F13255FF540E55E3EF53FA2B29233
:101311000219E9606AE4F58AF58CD28CFAA2B2303E
:101321000201B3400B0A7F017E00121990BA7DEDD4
:10133100A2B29202BA7D04E4FB80D6AF8CEFFEAD7F
:101341008A7C00E42DF582EC3EF583E4F58AF58C88
:10135100E55EC313FEE55F13FFD3E5829FE5839E40
:101361004019E5829540E583953F500F0BEB6404EE
:10137100709FF58AF58CC28C7F0122E4FB8092E498
:07138100F58AF58CC28CFF18
:011388002242
:100C5C0078717C007D007BFF7A1779237E007F2DD5
:100C6C00120716789E7C007D007BFF7A1779507EE8
:100C7C00007F081207161212F1EF7002C322AF5D4B
:100C8C00AE5C1218E1E4F53EA2B292023002077497
:100C9C0071253EF87601A2B2300201B350F8AF5D77
:100CAC00AE5C1218E1053EE53EC3942D40DAE4F546
:100CBC003EC37403953E2460F8E4F6FFC3740395B9
:100CCC003EFE2460F8C000E6C313D000F6E53E7586
:100CDC00F009A42F2471F8E6600874602EF8E6443D
:100CEC0080F60FBF08D6053EE53EB404C4E4F565B6
:100CFC00F53EE56525E0F565E53E75F009A424793A
:100D0C00F8E66003436501053EE53EB404E4E4F512
:100D1C0064F53EE564C313F5647495253EF8E6600E
:100D2C0003436480053EE53EB408E8E4F53E746098
:100D3C00253EF8E6FF7D08120026E53E25E0249EC0
:100D4C00F8A60608A607053EE53EC3940440DFE47A
:100D5C00F53EE53E25E0249EF9E7FFE53E25E0243F
:100D6C009EF8760008A607AF3EE565A80708800246
:100D7C00C313D8FC5401FF7871F6E53E25E0249F9F
:100D8C00F9EF67700219E76002C322053EE53EB435
:100D9C0004C07B007A0079607D041210137871EF27
:080DAC00F665646002C322D366
:010DB400221C
:10151700EF24F0601D24F0602624F8602F24E86093
:101527003824387034755E00755F80755C00755DB2
:101537006022755E01755F00755C00755DC0227580
:101547005E02755F00755C01755D8022755E0275D0
:101557005F80755C01755DE022755E04755F0075DF
:061567005C03755D00222B
:041116008F288D2968
:10111A0078307C007D007BFF7A1779587E007F0A41
:10112A00120716AE2CAD2BAC2A852D3D8E3C8D3B7D
:10113A008C3AE4F52F743A252FF8E6FF7D08120061
:10114A0026E52F25E02430F8A60608A607052FE590
:10115A002FC3940440DF7B007A00793A7D04121091
:10116A00137538008F39E529540FFF7D06120026C2
:10117A008F29AF2E121517121980E52824FB601F3C
:10118A0024FC600F14602624FE601B2409703E7F35
:10119A000380157F09121790120C5CE433FF227F3B
:1011AA000512179080277F0C12195A80207F0A1285
:1011BA00195AE4F52FE52F25E02430F87600087651
:1011CA00FF052FE52FB404EDE4F538F539E4F52FE2
:1011DA00E52F25E02430F8E6FE08E6FF7D09121720
:1011EA0099052FE52FC3940440E67D08AF39AE3840
:1011FA00121799E4FF121904E528B40A037F0122A1
:0B120A001212F1EF60037F01227F0051
:0112150022B6
:1017BE00000000000000000000000000000000001B
:1017CE00000000000000000000000000000000000B
:0D17DE0000000000000000000000000000FE
:0A178500C103026C0000026A0000BC
:0A19C70000007F047E80DEFEDFFCDE
:0119D10022F3
:0C19AD007F0C7E397D7ADDFEDEFCDFFA67
:0119B900220B
:0716E20090000AF0C204FFB2
:0216E900A9074F
:1016EB00E4FA7BC83004047A037BE8C2AFE4FCEC79
:1016FB00C3995021900000C3E5829BE5839A500863
:10170B00B2961219C7A380EFC296E9146C60061249
:07171B0019AD0C80DAD2AF1A
:0117220022A4
:0D19BA0075D53075D4F875D10875AF2022B1
:10184200C296C292D293C2B4D2B275924CE4F591CE
:1018520075B212F5B112196F1219BA7F7D1218BC46
:0A18620012199FC2047F010216E96B
:10009E0078087C007D017BFF7A1779BE7E007F2871
:1000AE0012071678307C007D017BFF7A1779E67E89
:1000BE00007F05120716E4900035F0A3F0121842E7
:1000CE003000FDC2007B017A0079087D2812189558
:1000DE008F23900008E0B4AAE774072FF582E4346A
:1000EE0000F583E0B4EED97B017A007908E523248C
:1000FE00FDFD121655900000EEF0A3EFF0740625EC
:10010E0023F582E43400F583E0FF900000E0FEEF7B
:10011E00B506AD74052523F582E43400F583E0FFC2
:10012E00900001E0FEEFB50697D292900009E0B480
:10013E00FF0AA3E0B4FF05D20302063A900009E0DD
:10014E00240F70030202A11470030203D114700372
:10015E0002043C1470030204B01470030206182447
:10016E0005600302064190000AE0900035F0E4F5C8
:10017E0021740B2521F582E43400F583E0FF74022F
:10018E002521F582E43400F583EFF00521E521B455
:10019E0002DFE4F521900003E020E003020287E491
:1001AE00F52DF52CF52BF52A900035E0F52EAD2129
:1001BE007F0912111690000AEFF0A3E521F07523C6
:1001CE000490000AE06027E4F52274602522F8E628
:1001DE00FFAE23052374082EF582E43400F583EF79
:1001EE00F00522E522B404E2C2047F01801EE4F58C
:1001FE0022AF23052374082FF582E43400F583E43F
:10020E00F00522E522B404E9C2047F021216E97B4E
:10021E00017A007908AD23121655900000EEF0A376
:10022E00EFF0900000E0FFAE23052374082EF58258
:10023E00E43400F583EFF0900001E0FFAE230523D8
:10024E0074082EF582E43400F583EFF0AF23052316
:10025E0074082FF582E43400F58374EEF07B017A96
:10026E00007908AD23120003756A00756B64D3E53F
:10027E006B9400E56A940050F5900002E0C313F011
:10028E00A3E013F00521E521C3941050030201A34E
:10029E00020641E4F521740A2521F582E43400F5C5
:1002AE0083E0FF74022521F582E43400F583EFF03C
:1002BE000521E521B402DFE4900036F0F52190002F
:1002CE0003E020E0030203B7E4F522900036E07568
:1002DE00F004A42522F582E435F0F583E582240CA2
:1002EE00F582E5833400F583E0FFE522FDC3740358
:1002FE009DFDE49400FC74042DF58274003CF5839E
:10030E00EFF00522E522B404C2900036E004F0902E
:10031E000004E0FCA3E0FDA3E0FEA3E0F52D8E2C8F
:10032E008D2B8C2A900035E0F52EAD217F05121114
:10033E001690000AEFF0A3E521F075230490000A51
:10034E00E06006C2047F018004C2047F021216E937
:10035E007B017A007908AD23121655900000EEF05D
:10036E00A3EFF0900000E0FFAE23052374082EF5F6
:10037E0082E43400F583EFF0900001E0FFAE230538
:10038E002374082EF582E43400F583EFF0AF2305D5
:10039E002374082FF582E43400F58374EEF07B01AC
:1003AE007A007908AD23120003900002E0C313F027
:1003BE00A3E013F00521E521C3941050030202CCF3
:1003CE00020641E4F522740C2522F582E43400F590
:1003DE0083E0FFE522FDC374039DFDE49400FC74ED
:1003EE00042DF58274003CF583EFF00522E522B46E
:1003FE0004D4900004E0FCA3E0FDA3E0FEA3E0F52E
:10040E002D8E2C8D2B8C2A900035E0F52E7D047FC1
:10041E000312111690000AEFF07523036006C20452
:10042E007F018004C2047F021216E90205BDD28E3E
:10043E00756A03756BE890000974F3F0E4A3F07528
:10044E002303D3E56B9400E56A9400402B12160C3F
:10045E0050F074011216E2E4F52174512521F8E6EC
:10046E00FFAE23052374082EF582E43400F583EFE6
:10047E00F00521E521B405E290000AE07021C204E6
:10048E007F021216E9E4F521AF23052374082FF538
:10049E0082E43400F583E4F00521E521B405E90298
:1004AE0005BDE4F521740B2521F582E43400F583B6
:1004BE00E0FF74462521F8A60774462521F8E6FFCD
:1004CE0074302521F582E43400F583EFF00521E543
:1004DE0021B405D190000AE014600E0470267B0052
:1004EE007A0079461215BE801B7B007A007946127F
:1004FE000DB5E4F52DF52CF52BF52A752E40FD7F67
:10050E0009121116C28EC2B4756A00756B64D3E5FA
:10051E006B9400E56A940050F5D28E756A03756B84
:10052E00E890000974F4F0E4A3F0752303D3E56BAF
:10053E009400E56A9400405012160C50F0E4F52138
:10054E0074302521F582E43400F583E0FF745125E3
:10055E0021F8E6B507070521E521B405E3E5216499
:10056E00057025041216E2E4F52174512521F8E6F2
:10057E00FFAE23052374082EF582E43400F583EFD5
:10058E00F00521E521B405E290000AE07021C204D5
:10059E007F021216E9E4F521AF23052374082FF527
:1005AE0082E43400F583E4F00521E521B405E97B0E
:1005BE00017A007908AD23121655900000EEF0A3D3
:1005CE00EFF0900000E0FFAE23052374082EF582B5
:1005DE00E43400F583EFF0900001E0FFAE23052335
:1005EE0074082EF582E43400F583EFF0AF23052373
:1005FE0074082FF582E43400F58374EEF07B017AF3
:10060E00007908AD231200038029900004E0FCA3BA
:10061E00E0FDA3E0FEA3E0F52D8E2C8D2B8C2A9011
:10062E000035E0F52EE4FD7F0A121116C2047F019B
:08063E001216E9C2920200CE7F
:03009B0002156DDE
:10156D00C0E0C0F0C083C082C0D075D00853EFFD7D
:10157D007F011217EB300308056DE56D7002056CE8
:10158D00C3E56D94F4E56C94014008756C00756DC0
:10159D0000B293D3E56B9400E56A94004008E56BC7
:1015AD00156B7002156AD0D0D082D083D0F0D0E008
:0115BD0032FB
:06194100D28E7F107E270C
:10194700EF1FAA0670011E4A60087D061DED60F0B4
:0219570080FA14
:01195900226B
:08192700C204752900752A6451
:10192F00300404D28E8004C28EC2B4AF2AAE290214
:02193F00194746
:02138900A907B2
:10138B00121941C204752900752AC812192FD204EB
:10139B00752900752ADC12192F121927D20412197C
:1013AB0029121927D204121929121927E4FBAF2885
:1013BB00AE27AD26AC2578011207948F288E278D8A
:1013CB00268C2530D70AD204752900752ADC8008B3
:1013DB00D204752900752A6412192F1219270BBB19
:1013EB0020CC7C04E4FBE95C600AD204752900750F
:1013FB002ADC8008D204752900752A6412192F1271
:10140B001927ECC313FC0BBB03DC121941C28EC2B0
:01141B00B41C
:01141C0022AD
:1008750000C1814001C0804101C0804100C181406B
:1008850001C0804100C1814000C1814001C080415B
:1008950001C0804100C1814000C1814001C080414B
:1008A50000C1814001C0804101C0804100C181403B
:1008B50001C0804100C1814000C1814001C080412B
:1008C50000C1814001C0804101C0804100C181401B
:1008D50000C1814001C0804101C0804100C181400B
:1008E50001C0804100C1814000C1814001C08041FB
:1008F50001C0804100C1814000C1814001C08041EB
:1009050000C1814001C0804101C0804100C18140DA
:1009150000C1814001C0804101C0804100C18140CA
:1009250001C0804100C1814000C1814001C08041BA
:1009350000C1814001C0804101C0804100C18140AA
:1009450001C0804100C1814000C1814001C080419A
:1009550001C0804100C1814000C1814001C080418A
:1009650000C1814001C0804101C0804100C181407A
:1009750000C0C101C30302C2C60607C705C5C4043A
:10098500CC0C0DCD0FCFCE0E0ACACB0BC90908C8AA
:10099500D81819D91BDBDA1A1EDEDF1FDD1D1CDC9A
:1009A50014D4D515D71716D6D21213D311D1D0100A
:1009B500F03031F133F3F23236F6F737F53534F4FA
:1009C5003CFCFD3DFF3F3EFEFA3A3BFB39F9F8386A
:1009D50028E8E929EB2B2AEAEE2E2FEF2DEDEC2C5A
:1009E500E42425E527E7E62622E2E323E12120E0CA
:1009F500A06061A163A3A26266A6A767A56564A4BA
:100A05006CACAD6DAF6F6EAEAA6A6BAB69A9A86829
:100A150078B8B979BB7B7ABABE7E7FBF7DBDBC7C19
:100A2500B47475B577B7B67672B2B373B17170B089
:100A35005090915193535292965657975595945479
:100A45009C5C5D9D5F9F9E5E5A9A9B5B99595898E9
:100A5500884849894B8B8A4A4E8E8F4F8D4D4C8CD9
:100A65004484854587474686824243834181804049
:081655008B248A2589268D27CC
:10165D007FFF7DFFAE271527EE6031AB240526E514
:10166D0026AA257002052514F912073C6FFB7A0096
:10167D002475F582EA3408F583E4936DFF74752BB8
:10168D00F582EA3409F583E493FD80C8EFFEEDFFA2
:01169D00222A
:1014290002009EE493A3F8E493A34003F68001F23B
:1014390008DFF48029E493A3F85407240CC8C333C4
:10144900C4540F4420C8834004F456800146F6DF93
:10145900E4800B0102040810204080901762E47EAA
:10146900019360BCA3FF543F30E509541FFEE49388
:10147900A360010ECF54C025E060A840B8E493A34F
:10148900FAE493A3F8E493A3C8C582C8CAC583CA7A
:10149900F0A3C8C582C8CAC583CADFE9DEE780BE32
:01178F000059
:10064600E709F608DFFA8046E709F208DFFA803E96
:1006560088828C83E709F0A3DFFA8032E309F60883
:10066600DFFA8078E309F208DFFA807088828C83EB
:10067600E309F0A3DFFA806489828A83E0A3F6089F
:10068600DFFA805889828A83E0A3F208DFFA804C79
:1006960080D280FA80C680D4806980F28033801050
:1006A60080A680EA809A80A880DA80E280CA8033B9
:1006B60089828A83ECFAE493A3C8C582C8CCC58331
:1006C600CCF0A3C8C582C8CCC583CCDFE9DEE78001
:1006D6000D89828A83E493A3F608DFF9ECFAA9F080
:1006E600EDFB2289828A83ECFAE0A3C8C582C8CCD6
:1006F600C583CCF0A3C8C582C8CCC583CCDFEADEEF
:10070600E880DB89828A83E493A3F208DFF980CC50
:1007160088F0EF60010E4E60C388F0ED2402B40449
:100726000050B9F582EB2402B4040050AF232345F0
:0607360082239006967379
:10073C00BB010689828A83E0225002E722BBFE02BB
:09074C00E32289828A83E49322EE
:10075500BB010CE58229F582E5833AF583E0225059
:1007650006E92582F8E622BBFE06E92582F8E222A3
:0D077500E58229F582E5833AF583E49322BD
:10078200BB010689828A83F0225002F722BBFE0156
:02079200F32250
:10169E00C2D5E830E70FB2D5E4C39BFBE49AFAE477
:1016AE0099F9E498F8EC30E717B2D51216D4120770
:1016BE00E3E4C39BFBE49AFAE499F9E498F8800317
:1016CE001207E330D50DE4C39FFFE49EFEE49DFDBB
:0416DE00E49CFC226A
:10079400E8600FEFC333FFEE33FEED33FDEC33FCC3
:0307A400D8F12267
:1007A70075F008758200EF2FFFEE33FECD33CDCC09
:1007B70033CCC58233C5829BED9AEC99E58298408C
:1007C7000CF582EE9BFEED9AFDEC99FC0FD5F0D669
:1007D700E4CEFBE4CDFAE4CCF9A88222B800C1B993
:1007E7000059BA002DEC8BF084CFCECDFCE5F0CBD1
:1007F700F97818EF2FFFEE33FEED33FDEC33FCEB0A
:1008070033FB10D703994004EB99FB0FD8E5E4F9C4
:10081700FA227818EF2FFFEE33FEED33FDEC33FCB1
:10082700C933C910D7059BE99A4007EC9BFCE99AA5
:10083700F90FD8E0E4C9FAE4CCFB2275F010EF2FEA
:10084700FFEE33FEED33FDCC33CCC833C810D707EA
:100857009BEC9AE899400AED9BFDEC9AFCE899F825
:0E0867000FD5F0DAE4CDFBE4CCFAE4C8F922B8
:00000001FF
